{
    "contractName": "KipuBankV3",
    "abi": [
        {
            "inputs": [
                {
                    "internalType": "address",
                    "name": "_router",
                    "type": "address"
                },
                {
                    "internalType": "address",
                    "name": "_usdc",
                    "type": "address"
                },
                {
                    "internalType": "uint256",
                    "name": "_bankCap",
                    "type": "uint256"
                },
                {
                    "internalType": "address",
                    "name": "_owner",
                    "type": "address"
                }
            ],
            "stateMutability": "nonpayable",
            "type": "constructor"
        },
        {
            "inputs": [
                {
                    "internalType": "address",
                    "name": "target",
                    "type": "address"
                }
            ],
            "name": "AddressEmptyCode",
            "type": "error"
        },
        {
            "inputs": [
                {
                    "internalType": "address",
                    "name": "account",
                    "type": "address"
                }
            ],
            "name": "AddressInsufficientBalance",
            "type": "error"
        },
        {
            "inputs": [],
            "name": "CapExceeded",
            "type": "error"
        },
        {
            "inputs": [],
            "name": "EnforcedPause",
            "type": "error"
        },
        {
            "inputs": [],
            "name": "ExpectedPause",
            "type": "error"
        },
        {
            "inputs": [],
            "name": "FailedInnerCall",
            "type": "error"
        },
        {
            "inputs": [],
            "name": "InsufficientBalance",
            "type": "error"
        },
        {
            "inputs": [
                {
                    "internalType": "address",
                    "name": "owner",
                    "type": "address"
                }
            ],
            "name": "OwnableInvalidOwner",
            "type": "error"
        },
        {
            "inputs": [
                {
                    "internalType": "address",
                    "name": "account",
                    "type": "address"
                }
            ],
            "name": "OwnableUnauthorizedAccount",
            "type": "error"
        },
        {
            "inputs": [],
            "name": "ReentrancyGuardReentrantCall",
            "type": "error"
        },
        {
            "inputs": [
                {
                    "internalType": "address",
                    "name": "token",
                    "type": "address"
                }
            ],
            "name": "SafeERC20FailedOperation",
            "type": "error"
        },
        {
            "inputs": [],
            "name": "UnsupportedToken",
            "type": "error"
        },
        {
            "inputs": [],
            "name": "UsedepositEth",
            "type": "error"
        },
        {
            "inputs": [],
            "name": "ZeroAddress",
            "type": "error"
        },
        {
            "inputs": [],
            "name": "ZeroAmount",
            "type": "error"
        },
        {
            "anonymous": false,
            "inputs": [
                {
                    "indexed": false,
                    "internalType": "uint256",
                    "name": "oldCap",
                    "type": "uint256"
                },
                {
                    "indexed": false,
                    "internalType": "uint256",
                    "name": "newCap",
                    "type": "uint256"
                }
            ],
            "name": "BankCapUpdated",
            "type": "event"
        },
        {
            "anonymous": false,
            "inputs": [
                {
                    "indexed": true,
                    "internalType": "address",
                    "name": "user",
                    "type": "address"
                },
                {
                    "indexed": true,
                    "internalType": "address",
                    "name": "tokenIn",
                    "type": "address"
                },
                {
                    "indexed": false,
                    "internalType": "uint256",
                    "name": "amountIn",
                    "type": "uint256"
                },
                {
                    "indexed": false,
                    "internalType": "uint256",
                    "name": "usdcReceived",
                    "type": "uint256"
                }
            ],
            "name": "DepositSwapped",
            "type": "event"
        },
        {
            "anonymous": false,
            "inputs": [
                {
                    "indexed": true,
                    "internalType": "address",
                    "name": "user",
                    "type": "address"
                },
                {
                    "indexed": false,
                    "internalType": "uint256",
                    "name": "usdcAmount",
                    "type": "uint256"
                }
            ],
            "name": "DepositUsdc",
            "type": "event"
        },
        {
            "anonymous": false,
            "inputs": [
                {
                    "indexed": true,
                    "internalType": "address",
                    "name": "previousOwner",
                    "type": "address"
                },
                {
                    "indexed": true,
                    "internalType": "address",
                    "name": "newOwner",
                    "type": "address"
                }
            ],
            "name": "OwnershipTransferred",
            "type": "event"
        },
        {
            "anonymous": false,
            "inputs": [
                {
                    "indexed": false,
                    "internalType": "address",
                    "name": "account",
                    "type": "address"
                }
            ],
            "name": "Paused",
            "type": "event"
        },
        {
            "anonymous": false,
            "inputs": [
                {
                    "indexed": true,
                    "internalType": "address",
                    "name": "oldRouter",
                    "type": "address"
                },
                {
                    "indexed": true,
                    "internalType": "address",
                    "name": "newRouter",
                    "type": "address"
                }
            ],
            "name": "RouterUpdated",
            "type": "event"
        },
        {
            "anonymous": false,
            "inputs": [
                {
                    "indexed": true,
                    "internalType": "address",
                    "name": "oldUsdc",
                    "type": "address"
                },
                {
                    "indexed": true,
                    "internalType": "address",
                    "name": "newUsdc",
                    "type": "address"
                }
            ],
            "name": "USDCUpdated",
            "type": "event"
        },
        {
            "anonymous": false,
            "inputs": [
                {
                    "indexed": false,
                    "internalType": "address",
                    "name": "account",
                    "type": "address"
                }
            ],
            "name": "Unpaused",
            "type": "event"
        },
        {
            "anonymous": false,
            "inputs": [
                {
                    "indexed": true,
                    "internalType": "address",
                    "name": "user",
                    "type": "address"
                },
                {
                    "indexed": false,
                    "internalType": "uint256",
                    "name": "usdcAmount",
                    "type": "uint256"
                },
                {
                    "indexed": true,
                    "internalType": "address",
                    "name": "to",
                    "type": "address"
                }
            ],
            "name": "WithdrawUsdc",
            "type": "event"
        },
        {
            "inputs": [],
            "name": "WETH",
            "outputs": [
                {
                    "internalType": "address",
                    "name": "",
                    "type": "address"
                }
            ],
            "stateMutability": "view",
            "type": "function"
        },
        {
            "inputs": [
                {
                    "internalType": "address",
                    "name": "",
                    "type": "address"
                }
            ],
            "name": "balanceOfUsdc",
            "outputs": [
                {
                    "internalType": "uint256",
                    "name": "",
                    "type": "uint256"
                }
            ],
            "stateMutability": "view",
            "type": "function"
        },
        {
            "inputs": [],
            "name": "bankCap",
            "outputs": [
                {
                    "internalType": "uint256",
                    "name": "",
                    "type": "uint256"
                }
            ],
            "stateMutability": "view",
            "type": "function"
        },
        {
            "inputs": [
                {
                    "internalType": "uint256",
                    "name": "minUsdcOut",
                    "type": "uint256"
                },
                {
                    "internalType": "uint256",
                    "name": "deadline",
                    "type": "uint256"
                }
            ],
            "name": "depositEth",
            "outputs": [],
            "stateMutability": "payable",
            "type": "function"
        },
        {
            "inputs": [
                {
                    "internalType": "address",
                    "name": "tokenIn",
                    "type": "address"
                },
                {
                    "internalType": "uint256",
                    "name": "amountIn",
                    "type": "uint256"
                },
                {
                    "internalType": "uint256",
                    "name": "minUsdcOut",
                    "type": "uint256"
                },
                {
                    "internalType": "uint256",
                    "name": "deadline",
                    "type": "uint256"
                }
            ],
            "name": "depositToken",
            "outputs": [],
            "stateMutability": "nonpayable",
            "type": "function"
        },
        {
            "inputs": [
                {
                    "internalType": "uint256",
                    "name": "amountUsdc",
                    "type": "uint256"
                }
            ],
            "name": "depositUsdc",
            "outputs": [],
            "stateMutability": "nonpayable",
            "type": "function"
        },
        {
            "inputs": [],
            "name": "factory",
            "outputs": [
                {
                    "internalType": "contract IUniswapV2Factory",
                    "name": "",
                    "type": "address"
                }
            ],
            "stateMutability": "view",
            "type": "function"
        },
        {
            "inputs": [
                {
                    "internalType": "address",
                    "name": "token",
                    "type": "address"
                }
            ],
            "name": "hasDirectUsdcPair",
            "outputs": [
                {
                    "internalType": "bool",
                    "name": "",
                    "type": "bool"
                }
            ],
            "stateMutability": "view",
            "type": "function"
        },
        {
            "inputs": [],
            "name": "owner",
            "outputs": [
                {
                    "internalType": "address",
                    "name": "",
                    "type": "address"
                }
            ],
            "stateMutability": "view",
            "type": "function"
        },
        {
            "inputs": [],
            "name": "pause",
            "outputs": [],
            "stateMutability": "nonpayable",
            "type": "function"
        },
        {
            "inputs": [],
            "name": "paused",
            "outputs": [
                {
                    "internalType": "bool",
                    "name": "",
                    "type": "bool"
                }
            ],
            "stateMutability": "view",
            "type": "function"
        },
        {
            "inputs": [],
            "name": "remainingCapacity",
            "outputs": [
                {
                    "internalType": "uint256",
                    "name": "",
                    "type": "uint256"
                }
            ],
            "stateMutability": "view",
            "type": "function"
        },
        {
            "inputs": [],
            "name": "renounceOwnership",
            "outputs": [],
            "stateMutability": "nonpayable",
            "type": "function"
        },
        {
            "inputs": [
                {
                    "internalType": "address",
                    "name": "token",
                    "type": "address"
                },
                {
                    "internalType": "address",
                    "name": "to",
                    "type": "address"
                },
                {
                    "internalType": "uint256",
                    "name": "amount",
                    "type": "uint256"
                }
            ],
            "name": "rescueERC20",
            "outputs": [],
            "stateMutability": "nonpayable",
            "type": "function"
        },
        {
            "inputs": [],
            "name": "router",
            "outputs": [
                {
                    "internalType": "contract IUniswapV2Router02",
                    "name": "",
                    "type": "address"
                }
            ],
            "stateMutability": "view",
            "type": "function"
        },
        {
            "inputs": [
                {
                    "internalType": "uint256",
                    "name": "_cap",
                    "type": "uint256"
                }
            ],
            "name": "setBankCap",
            "outputs": [],
            "stateMutability": "nonpayable",
            "type": "function"
        },
        {
            "inputs": [
                {
                    "internalType": "address",
                    "name": "_router",
                    "type": "address"
                }
            ],
            "name": "setRouter",
            "outputs": [],
            "stateMutability": "nonpayable",
            "type": "function"
        },
        {
            "inputs": [
                {
                    "internalType": "address",
                    "name": "_usdc",
                    "type": "address"
                }
            ],
            "name": "setUsdc",
            "outputs": [],
            "stateMutability": "nonpayable",
            "type": "function"
        },
        {
            "inputs": [],
            "name": "totalUsdc",
            "outputs": [
                {
                    "internalType": "uint256",
                    "name": "",
                    "type": "uint256"
                }
            ],
            "stateMutability": "view",
            "type": "function"
        },
        {
            "inputs": [
                {
                    "internalType": "address",
                    "name": "newOwner",
                    "type": "address"
                }
            ],
            "name": "transferOwnership",
            "outputs": [],
            "stateMutability": "nonpayable",
            "type": "function"
        },
        {
            "inputs": [],
            "name": "unpause",
            "outputs": [],
            "stateMutability": "nonpayable",
            "type": "function"
        },
        {
            "inputs": [],
            "name": "usdc",
            "outputs": [
                {
                    "internalType": "address",
                    "name": "",
                    "type": "address"
                }
            ],
            "stateMutability": "view",
            "type": "function"
        },
        {
            "inputs": [
                {
                    "internalType": "uint256",
                    "name": "amountUsdc",
                    "type": "uint256"
                },
                {
                    "internalType": "address",
                    "name": "to",
                    "type": "address"
                }
            ],
            "name": "withdrawUsdc",
            "outputs": [],
            "stateMutability": "nonpayable",
            "type": "function"
        },
        {
            "stateMutability": "payable",
            "type": "receive"
        }
    ],
    "bytecode": "60a080604052346101bf576080816115ec803803809161001f8285610251565b8339810103126101bf5761003281610288565b61003e60208301610288565b6040830151929091906001600160a01b039061005c90606001610288565b1690811561023e575f8054604051939182906001600160a01b038316907f8be0079c531659141344cd1fd0a4f28419497f9722a3daafe3b4186f6b6457e09080a36001600160a81b031916175f55600180556001600160a01b0316908115801561022d575b8015610226575b61021757600280546001600160a01b0319168317905563c45a015560e01b8152602081600481855afa9081156101cb575f916101d6575b50600380546001600160a01b0319166001600160a01b039092169190911790556040516315ab88c960e31b815290602090829060049082905afa9081156101cb575f9161018d575b50608052600480546001600160a01b0319166001600160a01b039290921691909117905560075560405161134f908161029d823960805181818161027901526106730152f35b90506020813d6020116101c3575b816101a860209383610251565b810103126101bf576101b990610288565b5f610147565b5f80fd5b3d915061019b565b6040513d5f823e3d90fd5b90506020813d60201161020f575b816101f160209383610251565b810103126101bf57600491610207602092610288565b9150916100ff565b3d91506101e4565b63d92e233d60e01b5f5260045ffd5b505f6100c8565b506001600160a01b038316156100c1565b631e4fbdf760e01b5f525f60045260245ffd5b601f909101601f19168101906001600160401b0382119082101761027457604052565b634e487b7160e01b5f52604160045260245ffd5b51906001600160a01b03821682036101bf5756fe60806040526004361015610027575b3615610018575f80fd5b633499ca4760e11b5f5260045ffd5b5f3560e01c80630de195e214610ea85780632357928e14610e0357806331eab30f14610daf57806334462be614610d925780633e413bee14610d6a5780633f4ba83a14610cfe5780635c975abb14610cda578063702fd200146108a0578063715018a614610849578063722221c5146108115780637b6562091461074b5780638456cb59146106eb5780638da5cb5b146106c4578063a78c7b08146106a2578063ad5c46481461065e578063b2118a8d146105fe578063c0d7865514610523578063c45a0155146104fb578063cb14687914610479578063ecbea24d1461045c578063ed50aeb9146101d9578063f2fde38b146101545763f887ea400361000e5734610150575f366003190112610150576002546040516001600160a01b039091168152602090f35b5f80fd5b346101505760203660031901126101505761016d610ed5565b610175611197565b6001600160a01b031680156101c6575f80546001600160a01b03198116831782556001600160a01b0316907f8be0079c531659141344cd1fd0a4f28419497f9722a3daafe3b4186f6b6457e09080a3005b631e4fbdf760e01b5f525f60045260245ffd5b6040366003190112610150576004356101f061110f565b6101f861112c565b341561044d5761020a81600654610fcd565b600754106103a957600480546040516370a0823160e01b815230928101929092526001600160a01b031691602082602481865afa9182156103ec575f92610417575b506102e2925f9160405191610262606084610f01565b60028352604036602085013761027783610fee565b7f00000000000000000000000000000000000000000000000000000000000000006001600160a01b031690526102ac8361100f565b5260018060a01b036002541690604051809681948293637ff36ab560e01b845260048401526080602484015260848301906110a5565b3060448301526024356064830152039134905af19182156103ec576024926103f7575b50602060018060a01b0360045416604051938480926370a0823160e01b82523060048301525afa80156103ec575f906103b8575b61034392506110e1565b61034f81600654610fcd565b600754106103a957335f52600560205260405f20818154019055600654016006555f6040513481528160208201527f2e00d04aa91230b96679c07c52ebde526395645415908940177f6cbd2a74243260403392a360018055005b63a4875a4960e01b5f5260045ffd5b506020823d6020116103e4575b816103d260209383610f01565b81010312610150576103439151610339565b3d91506103c5565b6040513d5f823e3d90fd5b610412903d805f833e61040a8183610f01565b81019061101f565b610305565b9091506020813d602011610445575b8161043360209383610f01565b810103126101505751906102e261024c565b3d9150610426565b631f2a200560e01b5f5260045ffd5b34610150575f366003190112610150576020600754604051908152f35b3461015057602036600319011261015057610492610ed5565b61049a611197565b6001600160a01b031680156104ec57600480546001600160a01b0319811683179091556001600160a01b03167f34bce51e81ccc5ca6cb9c21024c6824f3a4711ae2d1e6e8e4881317ff6d1c4135f80a3005b63d92e233d60e01b5f5260045ffd5b34610150575f366003190112610150576003546040516001600160a01b039091168152602090f35b346101505760203660031901126101505761053c610ed5565b610544611197565b6001600160a01b031680156104ec57600280546001600160a01b03198116831790915560405163c45a015560e01b8152602081600481865afa9081156103ec575f916105cf575b50600380546001600160a01b0319166001600160a01b03928316179055167f02dc5c233404867c793b749c6d644beb2277536d18a7e7974d3f238e4c6f16845f80a3005b6105f1915060203d6020116105f7575b6105e98183610f01565b810190610f37565b8361058b565b503d6105df565b3461015057606036600319011261015057610617610ed5565b61061f610eeb565b90610628611197565b6001600160a01b03168015801561064d575b6104ec5761064b91604435916111bd565b005b506001600160a01b0382161561063a565b34610150575f366003190112610150576040517f00000000000000000000000000000000000000000000000000000000000000006001600160a01b03168152602090f35b34610150575f3660031901126101505760206106bc6110ee565b604051908152f35b34610150575f366003190112610150575f546040516001600160a01b039091168152602090f35b34610150575f36600319011261015057610703611197565b61070b61110f565b5f805460ff60a01b1916600160a01b1790556040513381527f62e78cea01bee320cd4e420270b5ea74000d11b0c9f74754ebdbfc544b05a25890602090a1005b3461015057604036600319011261015057600435610767610eeb565b9061077061110f565b61077861112c565b6001600160a01b0382169182156104ec57811561044d57335f52600560205260405f2054828110610802576107d091838092335f5260056020520360405f2055816006540360065560018060a01b03600454166111bd565b6040519081527fb16ae7373246e75c51d2e77834fdc13f7ed3efbcc5b521deda2737aab653460760203392a360018055005b631e9acf1760e31b5f5260045ffd5b34610150576020366003190112610150576001600160a01b03610832610ed5565b165f526005602052602060405f2054604051908152f35b34610150575f36600319011261015057610861611197565b5f80546001600160a01b0319811682556001600160a01b03167f8be0079c531659141344cd1fd0a4f28419497f9722a3daafe3b4186f6b6457e08280a3005b34610150576080366003190112610150576108b9610ed5565b6024356044356108c761110f565b6108cf61112c565b6001600160a01b0383169283156104ec576004546001600160a01b03168414610ccb57821561044d5761090190610f56565b15610ccb5761091281600654610fcd565b600754106103a9576109268230338661114c565b60018060a01b03600254166040515f806020830163095ea7b360e01b81528460248501528160448501526044845261095f606485610f01565b83519082895af161096e61127c565b81610c9c575b5080610c92575b15610c59575b505060025460405163095ea7b360e01b602082019081526001600160a01b039092166024820181905260448083018690528252915f9081906109c4606485610f01565b83519082895af16109d361127c565b81610c2a575b5080610c20575b15610bdb575b5050600480546040516370a0823160e01b815230928101929092526001600160a01b031691602082602481865afa9182156103ec575f92610ba5575b50610a95925f9160405191610a38606084610f01565b60028352604036602085013787610a4e84610fee565b52610a588361100f565b5260018060a01b036002541690836040518097819582946338ed173960e01b84528b6004850152602484015260a0604484015260a48301906110a5565b306064830152606435608483015203925af19182156103ec57602492610b8d575b50602060018060a01b0360045416604051938480926370a0823160e01b82523060048301525afa80156103ec575f90610b59575b610af492506110e1565b610b0081600654610fcd565b600754106103a957335f52600560205260405f20818154019055600654016006556040519081525f60208201527f2e00d04aa91230b96679c07c52ebde526395645415908940177f6cbd2a74243260403392a360018055005b506020823d602011610b85575b81610b7360209383610f01565b8101031261015057610af49151610aea565b3d9150610b66565b610ba0903d805f833e61040a8183610f01565b610ab6565b9091506020813d602011610bd3575b81610bc160209383610f01565b81010312610150575190610a95610a22565b3d9150610bb4565b610c13610c19926040519063095ea7b360e01b602083015260248201525f604482015260448152610c0d606482610f01565b86611211565b84611211565b83806109e6565b50843b15156109e0565b8051801592508215610c3f575b5050866109d9565b610c5292506020809183010191016111f9565b8680610c37565b610c13610c8b926040519063095ea7b360e01b602083015260248201525f604482015260448152610c0d606482610f01565b8380610981565b50843b151561097b565b8051801592508215610cb1575b505086610974565b610cc492506020809183010191016111f9565b8680610ca9565b63350b944160e11b5f5260045ffd5b34610150575f36600319011261015057602060ff5f5460a01c166040519015158152f35b34610150575f36600319011261015057610d16611197565b5f5460ff8160a01c1615610d5b5760ff60a01b19165f556040513381527f5db9ee0a495bf2e6ff9c91a7834c1ba4fdd244a5e8aa4e537bd38aeae4b073aa90602090a1005b638dfc202b60e01b5f5260045ffd5b34610150575f366003190112610150576004546040516001600160a01b039091168152602090f35b34610150575f366003190112610150576020600654604051908152f35b34610150576020366003190112610150577fad92000a3e3f2046f70283b39f42a061dab5c4a40adcc51256d0f8b3dc8f8b5a6040600435610dee611197565b600754908060075582519182526020820152a1005b3461015057602036600319011261015057600435610e1f61110f565b610e2761112c565b801561044d57610e3981600654610fcd565b600754106103a957600454610e5c908290309033906001600160a01b031661114c565b335f52600560205260405f2081815401905580600654016006556040519081527f1a9a2ac939bfadf031596ef59ee22df92e5c98d280d23bfdca95a8d80d4d4f2360203392a260018055005b34610150576020366003190112610150576020610ecb610ec6610ed5565b610f56565b6040519015158152f35b600435906001600160a01b038216820361015057565b602435906001600160a01b038216820361015057565b90601f8019910116810190811067ffffffffffffffff821117610f2357604052565b634e487b7160e01b5f52604160045260245ffd5b9081602091031261015057516001600160a01b03811681036101505790565b6003546004805460405163e6a4390560e01b81526001600160a01b0394851692810192909252831660248201529160209183916044918391165afa9081156103ec575f91610fae575b506001600160a01b0316151590565b610fc7915060203d6020116105f7576105e98183610f01565b5f610f9f565b91908201809211610fda57565b634e487b7160e01b5f52601160045260245ffd5b805115610ffb5760200190565b634e487b7160e01b5f52603260045260245ffd5b805160011015610ffb5760400190565b6020818303126101505780519067ffffffffffffffff821161015057019080601f830112156101505781519167ffffffffffffffff8311610f23578260051b9060208201936110716040519586610f01565b845260208085019282010192831161015057602001905b8282106110955750505090565b8151815260209182019101611088565b90602080835192838152019201905f5b8181106110c25750505090565b82516001600160a01b03168452602093840193909201916001016110b5565b91908203918211610fda57565b600654600754908181101561110957611106916110e1565b90565b50505f90565b60ff5f5460a01c1661111d57565b63d93c066560e01b5f5260045ffd5b60026001541461113d576002600155565b633ee5aeb560e01b5f5260045ffd5b6040516323b872dd60e01b60208201526001600160a01b03928316602482015292909116604483015260648083019390935291815261119591611190608483610f01565b611211565b565b5f546001600160a01b031633036111aa57565b63118cdaa760e01b5f523360045260245ffd5b60405163a9059cbb60e01b60208201526001600160a01b0392909216602483015260448083019390935291815261119591611190606483610f01565b90816020910312610150575180151581036101505790565b5f806112399260018060a01b03169360208151910182865af161123261127c565b90836112bb565b8051908115159182611261575b505061124f5750565b635274afe760e01b5f5260045260245ffd5b61127492506020809183010191016111f9565b155f80611246565b3d156112b6573d9067ffffffffffffffff8211610f2357604051916112ab601f8201601f191660200184610f01565b82523d5f602084013e565b606090565b906112df57508051156112d057805190602001fd5b630a12f52160e11b5f5260045ffd5b81511580611310575b6112f0575090565b639996b31560e01b5f9081526001600160a01b0391909116600452602490fd5b50803b156112e856fea26469706673582212204605aa063c22a9be669aa7b5cb1b7d0dff2e96b94fd93832988a1b23d69dab6264736f6c634300081e0033",
    "sourcePath": "//wsl.localhost/Ubuntu/home/mwcastellan/KipuBankV3/src/KipuBankV3.sol",
    "compiler": {
        "name": "solc",
        "version": "0.8.30+commit.73712a01"
    },
    "functionHashes": {
        "WETH()": "ad5c4648",
        "balanceOfUsdc(address)": "722221c5",
        "bankCap()": "ecbea24d",
        "depositEth(uint256,uint256)": "ed50aeb9",
        "depositToken(address,uint256,uint256,uint256)": "702fd200",
        "depositUsdc(uint256)": "2357928e",
        "factory()": "c45a0155",
        "hasDirectUsdcPair(address)": "0de195e2",
        "owner()": "8da5cb5b",
        "pause()": "8456cb59",
        "paused()": "5c975abb",
        "remainingCapacity()": "a78c7b08",
        "renounceOwnership()": "715018a6",
        "rescueERC20(address,address,uint256)": "b2118a8d",
        "router()": "f887ea40",
        "setBankCap(uint256)": "31eab30f",
        "setRouter(address)": "c0d78655",
        "setUsdc(address)": "cb146879",
        "totalUsdc()": "34462be6",
        "transferOwnership(address)": "f2fde38b",
        "unpause()": "3f4ba83a",
        "usdc()": "3e413bee",
        "withdrawUsdc(uint256,address)": "7b656209"
    },
    "gasEstimates": {
        "creation": {
            "codeDepositCost": "988600",
            "executionCost": "infinite",
            "totalCost": "infinite"
        },
        "external": {
            "WETH()": "infinite",
            "balanceOfUsdc(address)": "2596",
            "bankCap()": "2666",
            "depositEth(uint256,uint256)": "infinite",
            "depositToken(address,uint256,uint256,uint256)": "infinite",
            "depositUsdc(uint256)": "infinite",
            "factory()": "2646",
            "hasDirectUsdcPair(address)": "infinite",
            "owner()": "2535",
            "pause()": "29949",
            "paused()": "2397",
            "remainingCapacity()": "4753",
            "renounceOwnership()": "28218",
            "rescueERC20(address,address,uint256)": "infinite",
            "router()": "2752",
            "setBankCap(uint256)": "27850",
            "setRouter(address)": "infinite",
            "setUsdc(address)": "28558",
            "totalUsdc()": "2314",
            "transferOwnership(address)": "28624",
            "unpause()": "27681",
            "usdc()": "2360",
            "withdrawUsdc(uint256,address)": "infinite"
        }
    }
}